{
	"data": {
		"bytecode": {
			"linkReferences": {},
			"object": "6080604052348015600e575f5ffd5b506109728061001c5f395ff3fe608060405234801561000f575f5ffd5b5060043610610060575f3560e01c80632e64cec114610064578063462b63ed146100825780636057361d146100b2578063bc832d4e146100ce578063cee4c0b0146100ea578063ef5fb05b1461011b575b5f5ffd5b61006c610139565b6040516100799190610305565b60405180910390f35b61009c6004803603810190610097919061046b565b610141565b6040516100a99190610305565b60405180910390f35b6100cc60048036038101906100c791906104dc565b61016e565b005b6100e860048036038101906100e39190610507565b610177565b005b61010460048036038101906100ff91906104dc565b6101fb565b6040516101129291906105c1565b60405180910390f35b6101236102b0565b60405161013091906105ef565b60405180910390f35b5f5f54905090565b6002818051602081018201805184825260208301602085012081835280955050505050505f915090505481565b805f8190555050565b6001604051806040016040528084815260200183815250908060018154018082558091505060019003905f5260205f2090600202015f909190919091505f820151815f015560208201518160010190816101d1919061081d565b505050816002826040516101e59190610926565b9081526020016040518091039020819055505050565b6001818154811061020a575f80fd5b905f5260205f2090600202015f91509050805f01549080600101805461022f9061063c565b80601f016020809104026020016040519081016040528092919081815260200182805461025b9061063c565b80156102a65780601f1061027d576101008083540402835291602001916102a6565b820191905f5260205f20905b81548152906001019060200180831161028957829003601f168201915b5050505050905082565b60606040518060400160405280600581526020017f48656c6c6f000000000000000000000000000000000000000000000000000000815250905090565b5f819050919050565b6102ff816102ed565b82525050565b5f6020820190506103185f8301846102f6565b92915050565b5f604051905090565b5f5ffd5b5f5ffd5b5f5ffd5b5f5ffd5b5f601f19601f8301169050919050565b7f4e487b71000000000000000000000000000000000000000000000000000000005f52604160045260245ffd5b61037d82610337565b810181811067ffffffffffffffff8211171561039c5761039b610347565b5b80604052505050565b5f6103ae61031e565b90506103ba8282610374565b919050565b5f67ffffffffffffffff8211156103d9576103d8610347565b5b6103e282610337565b9050602081019050919050565b828183375f83830152505050565b5f61040f61040a846103bf565b6103a5565b90508281526020810184848401111561042b5761042a610333565b5b6104368482856103ef565b509392505050565b5f82601f8301126104525761045161032f565b5b81356104628482602086016103fd565b91505092915050565b5f602082840312156104805761047f610327565b5b5f82013567ffffffffffffffff81111561049d5761049c61032b565b5b6104a98482850161043e565b91505092915050565b6104bb816102ed565b81146104c5575f5ffd5b50565b5f813590506104d6816104b2565b92915050565b5f602082840312156104f1576104f0610327565b5b5f6104fe848285016104c8565b91505092915050565b5f5f6040838503121561051d5761051c610327565b5b5f61052a858286016104c8565b925050602083013567ffffffffffffffff81111561054b5761054a61032b565b5b6105578582860161043e565b9150509250929050565b5f81519050919050565b5f82825260208201905092915050565b8281835e5f83830152505050565b5f61059382610561565b61059d818561056b565b93506105ad81856020860161057b565b6105b681610337565b840191505092915050565b5f6040820190506105d45f8301856102f6565b81810360208301526105e68184610589565b90509392505050565b5f6020820190508181035f8301526106078184610589565b905092915050565b7f4e487b71000000000000000000000000000000000000000000000000000000005f52602260045260245ffd5b5f600282049050600182168061065357607f821691505b6020821081036106665761066561060f565b5b50919050565b5f819050815f5260205f209050919050565b5f6020601f8301049050919050565b5f82821b905092915050565b5f600883026106c87fffffffffffffffffffffffffffffffffffffffffffffffffffffffffffffffff8261068d565b6106d2868361068d565b95508019841693508086168417925050509392505050565b5f819050919050565b5f61070d610708610703846102ed565b6106ea565b6102ed565b9050919050565b5f819050919050565b610726836106f3565b61073a61073282610714565b848454610699565b825550505050565b5f5f905090565b610751610742565b61075c81848461071d565b505050565b5f5b82811015610782576107775f828401610749565b600181019050610763565b505050565b601f8211156107d557828211156107d4576107a18161066c565b6107aa8361067e565b6107b38561067e565b60208610156107c0575f90505b8083016107cf82840382610761565b505050505b5b505050565b5f82821c905092915050565b5f6107f55f19846008026107da565b1980831691505092915050565b5f61080d83836107e6565b9150826002028217905092915050565b61082682610561565b67ffffffffffffffff81111561083f5761083e610347565b5b610849825461063c565b610854828285610787565b5f60209050601f831160018114610885575f8415610873578287015190505b61087d8582610802565b8655506108e4565b601f1984166108938661066c565b5f5b828110156108ba57848901518255600182019150602085019450602081019050610895565b868310156108d757848901516108d3601f8916826107e6565b8355505b6001600288020188555050505b505050505050565b5f81905092915050565b5f61090082610561565b61090a81856108ec565b935061091a81856020860161057b565b80840191505092915050565b5f61093182846108f6565b91508190509291505056fea2646970667358221220220d28c8e084c159e6b40ee88df402fdb97d547b0385e66c657390e45548c93d64736f6c63430008210033",
			"opcodes": "PUSH1 0x80 PUSH1 0x40 MSTORE CALLVALUE DUP1 ISZERO PUSH1 0xE JUMPI PUSH0 PUSH0 REVERT JUMPDEST POP PUSH2 0x972 DUP1 PUSH2 0x1C PUSH0 CODECOPY PUSH0 RETURN INVALID PUSH1 0x80 PUSH1 0x40 MSTORE CALLVALUE DUP1 ISZERO PUSH2 0xF JUMPI PUSH0 PUSH0 REVERT JUMPDEST POP PUSH1 0x4 CALLDATASIZE LT PUSH2 0x60 JUMPI PUSH0 CALLDATALOAD PUSH1 0xE0 SHR DUP1 PUSH4 0x2E64CEC1 EQ PUSH2 0x64 JUMPI DUP1 PUSH4 0x462B63ED EQ PUSH2 0x82 JUMPI DUP1 PUSH4 0x6057361D EQ PUSH2 0xB2 JUMPI DUP1 PUSH4 0xBC832D4E EQ PUSH2 0xCE JUMPI DUP1 PUSH4 0xCEE4C0B0 EQ PUSH2 0xEA JUMPI DUP1 PUSH4 0xEF5FB05B EQ PUSH2 0x11B JUMPI JUMPDEST PUSH0 PUSH0 REVERT JUMPDEST PUSH2 0x6C PUSH2 0x139 JUMP JUMPDEST PUSH1 0x40 MLOAD PUSH2 0x79 SWAP2 SWAP1 PUSH2 0x305 JUMP JUMPDEST PUSH1 0x40 MLOAD DUP1 SWAP2 SUB SWAP1 RETURN JUMPDEST PUSH2 0x9C PUSH1 0x4 DUP1 CALLDATASIZE SUB DUP2 ADD SWAP1 PUSH2 0x97 SWAP2 SWAP1 PUSH2 0x46B JUMP JUMPDEST PUSH2 0x141 JUMP JUMPDEST PUSH1 0x40 MLOAD PUSH2 0xA9 SWAP2 SWAP1 PUSH2 0x305 JUMP JUMPDEST PUSH1 0x40 MLOAD DUP1 SWAP2 SUB SWAP1 RETURN JUMPDEST PUSH2 0xCC PUSH1 0x4 DUP1 CALLDATASIZE SUB DUP2 ADD SWAP1 PUSH2 0xC7 SWAP2 SWAP1 PUSH2 0x4DC JUMP JUMPDEST PUSH2 0x16E JUMP JUMPDEST STOP JUMPDEST PUSH2 0xE8 PUSH1 0x4 DUP1 CALLDATASIZE SUB DUP2 ADD SWAP1 PUSH2 0xE3 SWAP2 SWAP1 PUSH2 0x507 JUMP JUMPDEST PUSH2 0x177 JUMP JUMPDEST STOP JUMPDEST PUSH2 0x104 PUSH1 0x4 DUP1 CALLDATASIZE SUB DUP2 ADD SWAP1 PUSH2 0xFF SWAP2 SWAP1 PUSH2 0x4DC JUMP JUMPDEST PUSH2 0x1FB JUMP JUMPDEST PUSH1 0x40 MLOAD PUSH2 0x112 SWAP3 SWAP2 SWAP1 PUSH2 0x5C1 JUMP JUMPDEST PUSH1 0x40 MLOAD DUP1 SWAP2 SUB SWAP1 RETURN JUMPDEST PUSH2 0x123 PUSH2 0x2B0 JUMP JUMPDEST PUSH1 0x40 MLOAD PUSH2 0x130 SWAP2 SWAP1 PUSH2 0x5EF JUMP JUMPDEST PUSH1 0x40 MLOAD DUP1 SWAP2 SUB SWAP1 RETURN JUMPDEST PUSH0 PUSH0 SLOAD SWAP1 POP SWAP1 JUMP JUMPDEST PUSH1 0x2 DUP2 DUP1 MLOAD PUSH1 0x20 DUP2 ADD DUP3 ADD DUP1 MLOAD DUP5 DUP3 MSTORE PUSH1 0x20 DUP4 ADD PUSH1 0x20 DUP6 ADD KECCAK256 DUP2 DUP4 MSTORE DUP1 SWAP6 POP POP POP POP POP POP PUSH0 SWAP2 POP SWAP1 POP SLOAD DUP2 JUMP JUMPDEST DUP1 PUSH0 DUP2 SWAP1 SSTORE POP POP JUMP JUMPDEST PUSH1 0x1 PUSH1 0x40 MLOAD DUP1 PUSH1 0x40 ADD PUSH1 0x40 MSTORE DUP1 DUP5 DUP2 MSTORE PUSH1 0x20 ADD DUP4 DUP2 MSTORE POP SWAP1 DUP1 PUSH1 0x1 DUP2 SLOAD ADD DUP1 DUP3 SSTORE DUP1 SWAP2 POP POP PUSH1 0x1 SWAP1 SUB SWAP1 PUSH0 MSTORE PUSH1 0x20 PUSH0 KECCAK256 SWAP1 PUSH1 0x2 MUL ADD PUSH0 SWAP1 SWAP2 SWAP1 SWAP2 SWAP1 SWAP2 POP PUSH0 DUP3 ADD MLOAD DUP2 PUSH0 ADD SSTORE PUSH1 0x20 DUP3 ADD MLOAD DUP2 PUSH1 0x1 ADD SWAP1 DUP2 PUSH2 0x1D1 SWAP2 SWAP1 PUSH2 0x81D JUMP JUMPDEST POP POP POP DUP2 PUSH1 0x2 DUP3 PUSH1 0x40 MLOAD PUSH2 0x1E5 SWAP2 SWAP1 PUSH2 0x926 JUMP JUMPDEST SWAP1 DUP2 MSTORE PUSH1 0x20 ADD PUSH1 0x40 MLOAD DUP1 SWAP2 SUB SWAP1 KECCAK256 DUP2 SWAP1 SSTORE POP POP POP JUMP JUMPDEST PUSH1 0x1 DUP2 DUP2 SLOAD DUP2 LT PUSH2 0x20A JUMPI PUSH0 DUP1 REVERT JUMPDEST SWAP1 PUSH0 MSTORE PUSH1 0x20 PUSH0 KECCAK256 SWAP1 PUSH1 0x2 MUL ADD PUSH0 SWAP2 POP SWAP1 POP DUP1 PUSH0 ADD SLOAD SWAP1 DUP1 PUSH1 0x1 ADD DUP1 SLOAD PUSH2 0x22F SWAP1 PUSH2 0x63C JUMP JUMPDEST DUP1 PUSH1 0x1F ADD PUSH1 0x20 DUP1 SWAP2 DIV MUL PUSH1 0x20 ADD PUSH1 0x40 MLOAD SWAP1 DUP2 ADD PUSH1 0x40 MSTORE DUP1 SWAP3 SWAP2 SWAP1 DUP2 DUP2 MSTORE PUSH1 0x20 ADD DUP3 DUP1 SLOAD PUSH2 0x25B SWAP1 PUSH2 0x63C JUMP JUMPDEST DUP1 ISZERO PUSH2 0x2A6 JUMPI DUP1 PUSH1 0x1F LT PUSH2 0x27D JUMPI PUSH2 0x100 DUP1 DUP4 SLOAD DIV MUL DUP4 MSTORE SWAP2 PUSH1 0x20 ADD SWAP2 PUSH2 0x2A6 JUMP JUMPDEST DUP3 ADD SWAP2 SWAP1 PUSH0 MSTORE PUSH1 0x20 PUSH0 KECCAK256 SWAP1 JUMPDEST DUP2 SLOAD DUP2 MSTORE SWAP1 PUSH1 0x1 ADD SWAP1 PUSH1 0x20 ADD DUP1 DUP4 GT PUSH2 0x289 JUMPI DUP3 SWAP1 SUB PUSH1 0x1F AND DUP3 ADD SWAP2 JUMPDEST POP POP POP POP POP SWAP1 POP DUP3 JUMP JUMPDEST PUSH1 0x60 PUSH1 0x40 MLOAD DUP1 PUSH1 0x40 ADD PUSH1 0x40 MSTORE DUP1 PUSH1 0x5 DUP2 MSTORE PUSH1 0x20 ADD PUSH32 0x48656C6C6F000000000000000000000000000000000000000000000000000000 DUP2 MSTORE POP SWAP1 POP SWAP1 JUMP JUMPDEST PUSH0 DUP2 SWAP1 POP SWAP2 SWAP1 POP JUMP JUMPDEST PUSH2 0x2FF DUP2 PUSH2 0x2ED JUMP JUMPDEST DUP3 MSTORE POP POP JUMP JUMPDEST PUSH0 PUSH1 0x20 DUP3 ADD SWAP1 POP PUSH2 0x318 PUSH0 DUP4 ADD DUP5 PUSH2 0x2F6 JUMP JUMPDEST SWAP3 SWAP2 POP POP JUMP JUMPDEST PUSH0 PUSH1 0x40 MLOAD SWAP1 POP SWAP1 JUMP JUMPDEST PUSH0 PUSH0 REVERT JUMPDEST PUSH0 PUSH0 REVERT JUMPDEST PUSH0 PUSH0 REVERT JUMPDEST PUSH0 PUSH0 REVERT JUMPDEST PUSH0 PUSH1 0x1F NOT PUSH1 0x1F DUP4 ADD AND SWAP1 POP SWAP2 SWAP1 POP JUMP JUMPDEST PUSH32 0x4E487B7100000000000000000000000000000000000000000000000000000000 PUSH0 MSTORE PUSH1 0x41 PUSH1 0x4 MSTORE PUSH1 0x24 PUSH0 REVERT JUMPDEST PUSH2 0x37D DUP3 PUSH2 0x337 JUMP JUMPDEST DUP2 ADD DUP2 DUP2 LT PUSH8 0xFFFFFFFFFFFFFFFF DUP3 GT OR ISZERO PUSH2 0x39C JUMPI PUSH2 0x39B PUSH2 0x347 JUMP JUMPDEST JUMPDEST DUP1 PUSH1 0x40 MSTORE POP POP POP JUMP JUMPDEST PUSH0 PUSH2 0x3AE PUSH2 0x31E JUMP JUMPDEST SWAP1 POP PUSH2 0x3BA DUP3 DUP3 PUSH2 0x374 JUMP JUMPDEST SWAP2 SWAP1 POP JUMP JUMPDEST PUSH0 PUSH8 0xFFFFFFFFFFFFFFFF DUP3 GT ISZERO PUSH2 0x3D9 JUMPI PUSH2 0x3D8 PUSH2 0x347 JUMP JUMPDEST JUMPDEST PUSH2 0x3E2 DUP3 PUSH2 0x337 JUMP JUMPDEST SWAP1 POP PUSH1 0x20 DUP2 ADD SWAP1 POP SWAP2 SWAP1 POP JUMP JUMPDEST DUP3 DUP2 DUP4 CALLDATACOPY PUSH0 DUP4 DUP4 ADD MSTORE POP POP POP JUMP JUMPDEST PUSH0 PUSH2 0x40F PUSH2 0x40A DUP5 PUSH2 0x3BF JUMP JUMPDEST PUSH2 0x3A5 JUMP JUMPDEST SWAP1 POP DUP3 DUP2 MSTORE PUSH1 0x20 DUP2 ADD DUP5 DUP5 DUP5 ADD GT ISZERO PUSH2 0x42B JUMPI PUSH2 0x42A PUSH2 0x333 JUMP JUMPDEST JUMPDEST PUSH2 0x436 DUP5 DUP3 DUP6 PUSH2 0x3EF JUMP JUMPDEST POP SWAP4 SWAP3 POP POP POP JUMP JUMPDEST PUSH0 DUP3 PUSH1 0x1F DUP4 ADD SLT PUSH2 0x452 JUMPI PUSH2 0x451 PUSH2 0x32F JUMP JUMPDEST JUMPDEST DUP2 CALLDATALOAD PUSH2 0x462 DUP5 DUP3 PUSH1 0x20 DUP7 ADD PUSH2 0x3FD JUMP JUMPDEST SWAP2 POP POP SWAP3 SWAP2 POP POP JUMP JUMPDEST PUSH0 PUSH1 0x20 DUP3 DUP5 SUB SLT ISZERO PUSH2 0x480 JUMPI PUSH2 0x47F PUSH2 0x327 JUMP JUMPDEST JUMPDEST PUSH0 DUP3 ADD CALLDATALOAD PUSH8 0xFFFFFFFFFFFFFFFF DUP2 GT ISZERO PUSH2 0x49D JUMPI PUSH2 0x49C PUSH2 0x32B JUMP JUMPDEST JUMPDEST PUSH2 0x4A9 DUP5 DUP3 DUP6 ADD PUSH2 0x43E JUMP JUMPDEST SWAP2 POP POP SWAP3 SWAP2 POP POP JUMP JUMPDEST PUSH2 0x4BB DUP2 PUSH2 0x2ED JUMP JUMPDEST DUP2 EQ PUSH2 0x4C5 JUMPI PUSH0 PUSH0 REVERT JUMPDEST POP JUMP JUMPDEST PUSH0 DUP2 CALLDATALOAD SWAP1 POP PUSH2 0x4D6 DUP2 PUSH2 0x4B2 JUMP JUMPDEST SWAP3 SWAP2 POP POP JUMP JUMPDEST PUSH0 PUSH1 0x20 DUP3 DUP5 SUB SLT ISZERO PUSH2 0x4F1 JUMPI PUSH2 0x4F0 PUSH2 0x327 JUMP JUMPDEST JUMPDEST PUSH0 PUSH2 0x4FE DUP5 DUP3 DUP6 ADD PUSH2 0x4C8 JUMP JUMPDEST SWAP2 POP POP SWAP3 SWAP2 POP POP JUMP JUMPDEST PUSH0 PUSH0 PUSH1 0x40 DUP4 DUP6 SUB SLT ISZERO PUSH2 0x51D JUMPI PUSH2 0x51C PUSH2 0x327 JUMP JUMPDEST JUMPDEST PUSH0 PUSH2 0x52A DUP6 DUP3 DUP7 ADD PUSH2 0x4C8 JUMP JUMPDEST SWAP3 POP POP PUSH1 0x20 DUP4 ADD CALLDATALOAD PUSH8 0xFFFFFFFFFFFFFFFF DUP2 GT ISZERO PUSH2 0x54B JUMPI PUSH2 0x54A PUSH2 0x32B JUMP JUMPDEST JUMPDEST PUSH2 0x557 DUP6 DUP3 DUP7 ADD PUSH2 0x43E JUMP JUMPDEST SWAP2 POP POP SWAP3 POP SWAP3 SWAP1 POP JUMP JUMPDEST PUSH0 DUP2 MLOAD SWAP1 POP SWAP2 SWAP1 POP JUMP JUMPDEST PUSH0 DUP3 DUP3 MSTORE PUSH1 0x20 DUP3 ADD SWAP1 POP SWAP3 SWAP2 POP POP JUMP JUMPDEST DUP3 DUP2 DUP4 MCOPY PUSH0 DUP4 DUP4 ADD MSTORE POP POP POP JUMP JUMPDEST PUSH0 PUSH2 0x593 DUP3 PUSH2 0x561 JUMP JUMPDEST PUSH2 0x59D DUP2 DUP6 PUSH2 0x56B JUMP JUMPDEST SWAP4 POP PUSH2 0x5AD DUP2 DUP6 PUSH1 0x20 DUP7 ADD PUSH2 0x57B JUMP JUMPDEST PUSH2 0x5B6 DUP2 PUSH2 0x337 JUMP JUMPDEST DUP5 ADD SWAP2 POP POP SWAP3 SWAP2 POP POP JUMP JUMPDEST PUSH0 PUSH1 0x40 DUP3 ADD SWAP1 POP PUSH2 0x5D4 PUSH0 DUP4 ADD DUP6 PUSH2 0x2F6 JUMP JUMPDEST DUP2 DUP2 SUB PUSH1 0x20 DUP4 ADD MSTORE PUSH2 0x5E6 DUP2 DUP5 PUSH2 0x589 JUMP JUMPDEST SWAP1 POP SWAP4 SWAP3 POP POP POP JUMP JUMPDEST PUSH0 PUSH1 0x20 DUP3 ADD SWAP1 POP DUP2 DUP2 SUB PUSH0 DUP4 ADD MSTORE PUSH2 0x607 DUP2 DUP5 PUSH2 0x589 JUMP JUMPDEST SWAP1 POP SWAP3 SWAP2 POP POP JUMP JUMPDEST PUSH32 0x4E487B7100000000000000000000000000000000000000000000000000000000 PUSH0 MSTORE PUSH1 0x22 PUSH1 0x4 MSTORE PUSH1 0x24 PUSH0 REVERT JUMPDEST PUSH0 PUSH1 0x2 DUP3 DIV SWAP1 POP PUSH1 0x1 DUP3 AND DUP1 PUSH2 0x653 JUMPI PUSH1 0x7F DUP3 AND SWAP2 POP JUMPDEST PUSH1 0x20 DUP3 LT DUP2 SUB PUSH2 0x666 JUMPI PUSH2 0x665 PUSH2 0x60F JUMP JUMPDEST JUMPDEST POP SWAP2 SWAP1 POP JUMP JUMPDEST PUSH0 DUP2 SWAP1 POP DUP2 PUSH0 MSTORE PUSH1 0x20 PUSH0 KECCAK256 SWAP1 POP SWAP2 SWAP1 POP JUMP JUMPDEST PUSH0 PUSH1 0x20 PUSH1 0x1F DUP4 ADD DIV SWAP1 POP SWAP2 SWAP1 POP JUMP JUMPDEST PUSH0 DUP3 DUP3 SHL SWAP1 POP SWAP3 SWAP2 POP POP JUMP JUMPDEST PUSH0 PUSH1 0x8 DUP4 MUL PUSH2 0x6C8 PUSH32 0xFFFFFFFFFFFFFFFFFFFFFFFFFFFFFFFFFFFFFFFFFFFFFFFFFFFFFFFFFFFFFFFF DUP3 PUSH2 0x68D JUMP JUMPDEST PUSH2 0x6D2 DUP7 DUP4 PUSH2 0x68D JUMP JUMPDEST SWAP6 POP DUP1 NOT DUP5 AND SWAP4 POP DUP1 DUP7 AND DUP5 OR SWAP3 POP POP POP SWAP4 SWAP3 POP POP POP JUMP JUMPDEST PUSH0 DUP2 SWAP1 POP SWAP2 SWAP1 POP JUMP JUMPDEST PUSH0 PUSH2 0x70D PUSH2 0x708 PUSH2 0x703 DUP5 PUSH2 0x2ED JUMP JUMPDEST PUSH2 0x6EA JUMP JUMPDEST PUSH2 0x2ED JUMP JUMPDEST SWAP1 POP SWAP2 SWAP1 POP JUMP JUMPDEST PUSH0 DUP2 SWAP1 POP SWAP2 SWAP1 POP JUMP JUMPDEST PUSH2 0x726 DUP4 PUSH2 0x6F3 JUMP JUMPDEST PUSH2 0x73A PUSH2 0x732 DUP3 PUSH2 0x714 JUMP JUMPDEST DUP5 DUP5 SLOAD PUSH2 0x699 JUMP JUMPDEST DUP3 SSTORE POP POP POP POP JUMP JUMPDEST PUSH0 PUSH0 SWAP1 POP SWAP1 JUMP JUMPDEST PUSH2 0x751 PUSH2 0x742 JUMP JUMPDEST PUSH2 0x75C DUP2 DUP5 DUP5 PUSH2 0x71D JUMP JUMPDEST POP POP POP JUMP JUMPDEST PUSH0 JUMPDEST DUP3 DUP2 LT ISZERO PUSH2 0x782 JUMPI PUSH2 0x777 PUSH0 DUP3 DUP5 ADD PUSH2 0x749 JUMP JUMPDEST PUSH1 0x1 DUP2 ADD SWAP1 POP PUSH2 0x763 JUMP JUMPDEST POP POP POP JUMP JUMPDEST PUSH1 0x1F DUP3 GT ISZERO PUSH2 0x7D5 JUMPI DUP3 DUP3 GT ISZERO PUSH2 0x7D4 JUMPI PUSH2 0x7A1 DUP2 PUSH2 0x66C JUMP JUMPDEST PUSH2 0x7AA DUP4 PUSH2 0x67E JUMP JUMPDEST PUSH2 0x7B3 DUP6 PUSH2 0x67E JUMP JUMPDEST PUSH1 0x20 DUP7 LT ISZERO PUSH2 0x7C0 JUMPI PUSH0 SWAP1 POP JUMPDEST DUP1 DUP4 ADD PUSH2 0x7CF DUP3 DUP5 SUB DUP3 PUSH2 0x761 JUMP JUMPDEST POP POP POP POP JUMPDEST JUMPDEST POP POP POP JUMP JUMPDEST PUSH0 DUP3 DUP3 SHR SWAP1 POP SWAP3 SWAP2 POP POP JUMP JUMPDEST PUSH0 PUSH2 0x7F5 PUSH0 NOT DUP5 PUSH1 0x8 MUL PUSH2 0x7DA JUMP JUMPDEST NOT DUP1 DUP4 AND SWAP2 POP POP SWAP3 SWAP2 POP POP JUMP JUMPDEST PUSH0 PUSH2 0x80D DUP4 DUP4 PUSH2 0x7E6 JUMP JUMPDEST SWAP2 POP DUP3 PUSH1 0x2 MUL DUP3 OR SWAP1 POP SWAP3 SWAP2 POP POP JUMP JUMPDEST PUSH2 0x826 DUP3 PUSH2 0x561 JUMP JUMPDEST PUSH8 0xFFFFFFFFFFFFFFFF DUP2 GT ISZERO PUSH2 0x83F JUMPI PUSH2 0x83E PUSH2 0x347 JUMP JUMPDEST JUMPDEST PUSH2 0x849 DUP3 SLOAD PUSH2 0x63C JUMP JUMPDEST PUSH2 0x854 DUP3 DUP3 DUP6 PUSH2 0x787 JUMP JUMPDEST PUSH0 PUSH1 0x20 SWAP1 POP PUSH1 0x1F DUP4 GT PUSH1 0x1 DUP2 EQ PUSH2 0x885 JUMPI PUSH0 DUP5 ISZERO PUSH2 0x873 JUMPI DUP3 DUP8 ADD MLOAD SWAP1 POP JUMPDEST PUSH2 0x87D DUP6 DUP3 PUSH2 0x802 JUMP JUMPDEST DUP7 SSTORE POP PUSH2 0x8E4 JUMP JUMPDEST PUSH1 0x1F NOT DUP5 AND PUSH2 0x893 DUP7 PUSH2 0x66C JUMP JUMPDEST PUSH0 JUMPDEST DUP3 DUP2 LT ISZERO PUSH2 0x8BA JUMPI DUP5 DUP10 ADD MLOAD DUP3 SSTORE PUSH1 0x1 DUP3 ADD SWAP2 POP PUSH1 0x20 DUP6 ADD SWAP5 POP PUSH1 0x20 DUP2 ADD SWAP1 POP PUSH2 0x895 JUMP JUMPDEST DUP7 DUP4 LT ISZERO PUSH2 0x8D7 JUMPI DUP5 DUP10 ADD MLOAD PUSH2 0x8D3 PUSH1 0x1F DUP10 AND DUP3 PUSH2 0x7E6 JUMP JUMPDEST DUP4 SSTORE POP JUMPDEST PUSH1 0x1 PUSH1 0x2 DUP9 MUL ADD DUP9 SSTORE POP POP POP JUMPDEST POP POP POP POP POP POP JUMP JUMPDEST PUSH0 DUP2 SWAP1 POP SWAP3 SWAP2 POP POP JUMP JUMPDEST PUSH0 PUSH2 0x900 DUP3 PUSH2 0x561 JUMP JUMPDEST PUSH2 0x90A DUP2 DUP6 PUSH2 0x8EC JUMP JUMPDEST SWAP4 POP PUSH2 0x91A DUP2 DUP6 PUSH1 0x20 DUP7 ADD PUSH2 0x57B JUMP JUMPDEST DUP1 DUP5 ADD SWAP2 POP POP SWAP3 SWAP2 POP POP JUMP JUMPDEST PUSH0 PUSH2 0x931 DUP3 DUP5 PUSH2 0x8F6 JUMP JUMPDEST SWAP2 POP DUP2 SWAP1 POP SWAP3 SWAP2 POP POP JUMP INVALID LOG2 PUSH5 0x6970667358 0x22 SLT KECCAK256 0x22 0xD 0x28 0xC8 RJUMP 0x84C1 MSIZE DUPN 0xB4 0xE 0xE8 DUP14 DELEGATECALL MUL REVERT 0xB9 PUSH30 0x547B0385E66C657390E45548C93D64736F6C634300082100330000000000 "
		},
		"gasEstimates": {
			"creation": {
				"codeDepositCost": "483600",
				"executionCost": "516",
				"totalCost": "484116"
			},
			"external": {
				"addPerson(uint256,string)": "infinite",
				"listofPeoples(uint256)": "infinite",
				"nametofvrtNumber(string)": "infinite",
				"retrieve()": "2409",
				"sayHello()": "infinite",
				"store(uint256)": "22536"
			}
		},
		"methodIdentifiers": {
			"addPerson(uint256,string)": "bc832d4e",
			"listofPeoples(uint256)": "cee4c0b0",
			"nametofvrtNumber(string)": "462b63ed",
			"retrieve()": "2e64cec1",
			"sayHello()": "ef5fb05b",
			"store(uint256)": "6057361d"
		}
	},
	"abi": [
		{
			"inputs": [
				{
					"internalType": "uint256",
					"name": "_fvrtNumber",
					"type": "uint256"
				},
				{
					"internalType": "string",
					"name": "_name",
					"type": "string"
				}
			],
			"name": "addPerson",
			"outputs": [],
			"stateMutability": "nonpayable",
			"type": "function"
		},
		{
			"inputs": [
				{
					"internalType": "uint256",
					"name": "",
					"type": "uint256"
				}
			],
			"name": "listofPeoples",
			"outputs": [
				{
					"internalType": "uint256",
					"name": "fvrtNumber",
					"type": "uint256"
				},
				{
					"internalType": "string",
					"name": "name",
					"type": "string"
				}
			],
			"stateMutability": "view",
			"type": "function"
		},
		{
			"inputs": [
				{
					"internalType": "string",
					"name": "",
					"type": "string"
				}
			],
			"name": "nametofvrtNumber",
			"outputs": [
				{
					"internalType": "uint256",
					"name": "",
					"type": "uint256"
				}
			],
			"stateMutability": "view",
			"type": "function"
		},
		{
			"inputs": [],
			"name": "retrieve",
			"outputs": [
				{
					"internalType": "uint256",
					"name": "",
					"type": "uint256"
				}
			],
			"stateMutability": "view",
			"type": "function"
		},
		{
			"inputs": [],
			"name": "sayHello",
			"outputs": [
				{
					"internalType": "string",
					"name": "",
					"type": "string"
				}
			],
			"stateMutability": "pure",
			"type": "function"
		},
		{
			"inputs": [
				{
					"internalType": "uint256",
					"name": "num",
					"type": "uint256"
				}
			],
			"name": "store",
			"outputs": [],
			"stateMutability": "nonpayable",
			"type": "function"
		}
	]
}